:100000000C946B000C9493000C9493000C9493004C
:100010000C9493000C9493000C9493000C94930014
:100020000C9493000C9493000C9493000C94930004
:100030000C9493000C9493000C9493000C949300F4
:100040000C9417020C9493000C9487020C94610298
:100050000C9493000C9493000C9493000C949300D4
:100060000C9493000C9493001112131415160000B5
:100070000000250028002B000000000023002600BF
:10008000290000000008000201000003040700002E
:1000900000000000000000000000240027002A00EB
:1000A000010204081020408001020408102001020F
:1000B00004081020040404040404040402020202DC
:1000C00002020303030303030001020304050A0BF6
:1000D0000C0D0E0F590C11241FBECFEFD8E0DEBF60
:1000E000CDBF13E0A0E0B1E0E6EFFDE102C0059076
:1000F0000D92A435B107D9F724E0A4E5B3E001C01F
:100100001D92A239B207E1F710E0CBE6D0E004C0BF
:100110002197FE010E94C10DCA36D107C9F70E947E
:1001200090080C94F90E0C9400003FB7F89480915D
:10013000590390915A03A0915B03B0915C0326B5DB
:10014000A89B05C02F3F19F00196A11DB11D3FBF0F
:10015000BA2FA92F982F8827820F911DA11DB11D9D
:10016000BC01CD0142E0660F771F881F991F4A9599
:10017000D1F70895CF92DF92EF92FF920F931F93E2
:10018000CF93DF936C017A018B01C0E0D0E0CE15F4
:10019000DF0589F0D8016D918D01D601ED91FC91BB
:1001A0000190F081E02DC6010995892B11F47E01A3
:1001B00002C02196ECCFC701DF91CF911F910F9123
:1001C000FF90EF90DF90CF900895089580E090E049
:1001D0000895FC01538D448D252F30E0842F90E04D
:1001E000821B930B541710F0CF9608950197089532
:1001F000FC01918D828D981761F0828DDF01A80F2F
:10020000B11D5D968C91928D9F5F9F73928F90E050
:1002100008958FEF9FEF0895FC01918D828D9817BF
:1002200031F0828DE80FF11D858D90E008958FEFFC
:100230009FEF0895FC01918D228D892F90E0805CC5
:100240009F4F821B91098F73992708958DE593E045
:100250000E941A0121E0892B09F420E0822F0895E1
:10026000FC01848DDF01A80FB11DA35ABF4F2C9153
:10027000848D90E001968F739927848FA689B78922
:100280002C93A089B1898C9180648C93938D848DFB
:10029000981306C00288F389E02D80818F7D8083CA
:1002A0000895EF92FF920F931F93CF93DF93EC018A
:1002B00081E0888F9B8D8C8D981305C0E889F98922
:1002C000808185FD24C0F62E0B8D10E00F5F1F4F3F
:1002D0000F731127E02E8C8DE8120CC00FB607FCAF
:1002E000FACFE889F989808185FFF5CFCE010E9498
:1002F0003001F1CF8B8DFE01E80FF11DE35AFF4F66
:10030000F0820B8FEA89FB898081806207C0EE89C9
:10031000FF896083E889F98980818064808381E036
:1003200090E0DF91CF911F910F91FF90EF90089592
:10033000CF93DF93EC01888D8823C9F0EA89FB898C
:10034000808185FD05C0A889B9898C9186FD0FC083
:100350000FB607FCF5CF808185FFF2CFA889B98958
:100360008C9185FFEDCFCE010E943001E7CFDF9168
:10037000CF91089580E090E0892B29F00E9426011A
:1003800081110C94000008950E94EB0E82309105BB
:1003900038F0880F991F880F991F05970197F1F77B
:1003A00008958F929F92AF92BF92CF92DF92EF9279
:1003B000FF926B017C010E9495004B015C01C1140E
:1003C000D104E104F104F1F00E949500DC01CB01BD
:1003D00088199909AA09BB09883E9340A105B1056E
:1003E00070F321E0C21AD108E108F10888EE880E06
:1003F00083E0981EA11CB11CC114D104E104F104D6
:1004000019F7DDCFFF90EF90DF90CF90BF90AF90C6
:100410009F908F9008952FB7F89460915503709135
:10042000560380915703909158032FBF08951F9250
:100430000F920FB60F9211242F933F938F939F9398
:10044000AF93BF938091550390915603A0915703AA
:10045000B09158033091540323E0230F2D3720F43B
:100460000196A11DB11D05C026E8230F0296A11D0E
:10047000B11D209354038093550390935603A0938A
:100480005703B09358038091590390915A03A09158
:100490005B03B0915C030196A11DB11D80935903CC
:1004A00090935A03A0935B03B0935C03BF91AF9109
:1004B0009F918F913F912F910F900FBE0F901F90A2
:1004C00018951F920F920FB60F9211242F933F93FE
:1004D0004F935F936F937F938F939F93AF93BF934C
:1004E000EF93FF938DE593E00E943001FF91EF9130
:1004F000BF91AF919F918F917F916F915F914F913C
:100500003F912F910F900FBE0F901F9018951F9243
:100510000F920FB60F9211242F938F939F93EF9307
:10052000FF93E0916D03F0916E038081E09173037E
:10053000F091740382FD12C09081809176038F5FE9
:100540008F7320917703821751F0E0917603F0E0EA
:10055000E35AFC4F958F8093760301C08081FF9111
:10056000EF919F918F912F910F900FBE0F901F9041
:100570001895FC01208131818281938128173907E8
:1005800019F0822F0C9472060895CF93DF93EC013B
:100590009CB59F7D9CBD9CB5937F9CBD9CB59C7F6D
:1005A0009CBD9DB591609DBD8A810E9472068C891B
:1005B0009D89DF91CF910C94C60161E00C94C50236
:1005C00060E00C94C5028EBD00000DB407FEFDCFA7
:1005D0008EB50895EF92FF921F93CF93DF931F92F2
:1005E000CDB7DEB77C0169830E94E0026981862F66
:1005F0000E94E302182FC7010E94DD02812F0F9095
:10060000DF91CF911F91FF90EF90089561EE0C94D0
:10061000EA02EF92FF921F93CF93DF9300D0CDB702
:10062000DEB77C014A8369830E94E0026981862FDC
:100630008F7180620E94E302182F4A81842F0E94EA
:10064000E302C7010E94DD02812F0F900F90DF911E
:10065000CF911F91FF90EF900895CF92DF92EF928C
:10066000FF920F931F93CF93DF9300D01F92CDB7CC
:10067000DEB77C01142F2A835B8369830E94E0022A
:100680006981862F8F7180620E94E302082FC12E3C
:100690005B81D52E2A81120F1C1531F0F601819154
:1006A0006F010E94E302F8CFC7010E94DD02802F94
:1006B0000F900F900F90DF91CF911F910F91FF90AE
:1006C000EF90DF90CF900895EF92FF921F93CF931A
:1006D000DF931F92CDB7DEB77C0169830E94E002F1
:1006E0006981862F8F710E94E3028FEF0E94E302DF
:1006F000182FC7010E94DD02812F0F90DF91CF914B
:100700001F91FF90EF9008950F931F93CF93DF9366
:100710008C01C62FD0E0FE01E859FF4F6491FC0127
:1007200047810E94090362E0C8010E946403FE0140
:10073000E853FF4FE49141E050E001C0440FEA95D7
:10074000EAF7482B62E0C801DF91CF911F910F912A
:100750000C940903CF93DF93EC0160E00E946403E3
:1007600081FD0EC0482F426060E0CE010E94090367
:1007700065E070E080E090E0DF91CF910C94D101D2
:10078000DF91CF910895CF93DF93EC010E94AA03EC
:1007900060E0CE010E946403482F416060E0CE011A
:1007A0000E94090340E767E0CE010E94090361E06F
:1007B000CE010E94B9028985882349F02E85AE01B9
:1007C000475F5F4F6AE0CE010E942D0314C062E0D4
:1007D000CE010E946403E8ECF0E0E49121E030E017
:1007E00001C0220FEA95EAF72095422F482362E0E4
:1007F000CE010E9409036DE1CE010E94640381FFD6
:1008000005C0CE01DF91CF910C940603DF91CF910B
:100810000895833081F028F4813099F08230A1F07E
:1008200008958730A9F08830B9F08430D1F48091F0
:1008300080008F7D03C0809180008F77809380003F
:10084000089584B58F7702C084B58F7D84BD0895E7
:100850008091B0008F7703C08091B0008F7D80932E
:10086000B0000895009769F0FC0101900020E9F7BD
:100870003197AF01481B590BBC018DE593E00C94F7
:10088000BA0080E090E008958CEB92E00C94320482
:100890008F929F92AF92BF920F931F93CF93DF934C
:1008A000CDB7DEB7A1970FB6F894DEBF0FBECDBFB0
:1008B00019A2423008F44AE08E010F5D1F4F842ECA
:1008C000912CA12CB12CA50194010E94900DE62F32
:1008D000B901CA0101501109EA3014F4E05D01C008
:1008E000E95CD801EC93232B242B252B61F7C8015D
:1008F0000E943204A1960FB6F894DEBF0FBECDBFA2
:10090000DF91CF911F910F91BF90AF909F908F90EB
:100910000895CF92DF92EF92FF92CF93DF936C0115
:10092000990FEE08FF08F7FE1AC0E0915D03F09101
:100930005E030190F081E02D6DE28DE593E0099575
:10094000EC0166277727CB016C197D098E099F0979
:100950004AE00E9448047C01EC0EFD1E06C04AE0FD
:10096000C701B6010E9448047C010E9444048E0D18
:100970009F1DDF91CF91FF90EF90DF90CF90089572
:100980000C943204CF93DF93AB01672B61F4E091B9
:100990005D03F0915E030190F081E02D682F8DE5FD
:1009A00093E0099505C0BC0180E090E00E944804F6
:1009B000EC010E9444048C0F9D1FDF91CF9108959C
:1009C000CF93DF930E943204EC010E9444048C0F09
:1009D0009D1FDF91CF910895AF92BF92CF92DF928A
:1009E000EF92FF920F931F93CF93DF93CDB7DEB7B4
:1009F00028970FB6F894DEBF0FBECDBF6C01B62EA0
:100A0000A72EE42E009114041091150460E0C80193
:100A10000E94B902F801808991890E94C6016DE1A6
:100A2000C8010E94640381FF08C0F8018089918990
:100A30000E94C601C8010E94060360E0C8010E942E
:100A40006403482F4E7F60E0C8010E94090362E002
:100A5000C8010E946403E8ECF0E0E49141E050E05A
:100A600001C0440FEA95EAF7482B62E0C8010E94F2
:100A7000090300911404109115049601D0902E04DE
:100A8000F0902F04B0913004A0913104F091320421
:100A9000E091330429833A83DB82FC82BD83AE83F9
:100AA000FF83E887F8012685AE014F5F5F4F6AE05C
:100AB000C8010E942D03F8012685AE014F5F5F4FEC
:100AC00060E1C8010E942D03F801478161E1C8017E
:100AD0000E9409030091140410911504F801F78095
:100AE000FE1408F4EF2CF8018085811102C0FE1875
:100AF00001C0F12CC8010E94E00280EA0E94E302DA
:100B0000CB2CDA2CEB0CEC1431F0F60181916F0157
:100B10000E94E302F8CFFF2029F080E00E94E30268
:100B2000FA94F9CFC8010E94DD0261E0C8010E9479
:100B3000B9020E940B026B017C016FEFC8010E9499
:100B4000EA02807389F40E940B02DC01CB018C194C
:100B50009D09AE09BF0980369105A105B10568F36D
:100B600081E0F80187870EC060E0C8010E94B902E9
:100B700040E767E0C8010E94090384FF05C0C8017F
:100B80000E94060310E001C011E0809114049091CE
:100B900015040E94C303812F28960FB6F894DEBF78
:100BA0000FBECDBFDF91CF911F910F91FF90EF90BE
:100BB000DF90CF90BF90AF900895CF93DF938FEBEE
:100BC00092E00E94E00487ED92E00E94C0046091F0
:100BD0003C0470913D0480E090E04AE00E944804AB
:100BE00085EE92E00E94C0046AE070E080913E04CD
:100BF00090913F040E94C2048FEF80936F0485E5BB
:100C0000809370041092720482E08093730480E5F4
:100C10008093740480913E0490913F048093750406
:100C20009093760480913C0490913D0480938F04CE
:100C300090939004809377048AE080936E0490935D
:100C4000780488E080937104CFE6D4E0699170E085
:100C500080E090E040E10E94480489E192E00E9437
:100C6000C00484E0CA37D80789F70E9444044BE0E7
:100C70006FE674E088EE93E00E94EC04882319F09C
:100C800088EF92E002C08BE193E0DF91CF910C946A
:100C9000E004CF93DF93282F30E0F901EE57FF4FA8
:100CA0008491F901E056FF4FD491F901EC54FF4FC4
:100CB000C491CC2391F081110E940904EC2FF0E043
:100CC000EE0FFF1FE858FF4FA591B491EC91ED2373
:100CD00081E090E021F480E002C080E090E0DF91CC
:100CE000CF9108951F93CF93DF93282F30E0F90120
:100CF000EE57FF4F8491F901E056FF4FD491F9016F
:100D0000EC54FF4FC491CC23C9F0162F81110E94DF
:100D10000904EC2FF0E0EE0FFF1FE259FF4FA59101
:100D2000B4918FB7F894111105C09C91ED2FE09507
:100D3000E92302C0EC91ED2BEC938FBFDF91CF91B3
:100D40001F910895CF93DF9390E0FC01E056FF4F91
:100D50002491FC01EC54FF4F8491882361F190E0D1
:100D6000880F991FFC01EA56FF4FC591D491FC01F1
:100D7000E259FF4FA591B491611109C09FB7F89452
:100D80008881209582238883EC912E230BC06230CA
:100D900061F49FB7F8943881822F809583238883EC
:100DA000EC912E2B2C939FBF06C08FB7F894E8814F
:100DB0002E2B28838FBFDF91CF910895CF93CFB78C
:100DC000F89480919104811127C0EEEBF0E08491BA
:100DD000EAEAF0E09491E82FF0E0EE0FFF1FEA5608
:100DE000FF4FA591B491EC91E92321F461E08AE0F1
:100DF0000E94720661E08AE00E94A2068CB58061C2
:100E00008CBD8CB580648CBD61E08DE00E94A20633
:100E100061E08BE00E94A206809191048F5F809335
:100E20009104CFBFCF910895DF92EF92FF920F937D
:100E30001F93CF93DF93CDB7DEB760970FB6F894CB
:100E4000DEBF0FBECDBF9093230480932204009198
:100E5000140410911504F80180819181228133815D
:100E60008217930719F061E00E94A206F8018281BF
:100E70009381208131812817390719F061E00E94A0
:100E8000A2060E94DE0660E0C8010E94B90261E08D
:100E9000C8010E94C50265E070E080E090E00E9419
:100EA000D1014CE060E0C8010E9409034FE564E015
:100EB000C8010E94090366E0C8010E946403877D9F
:100EC0008062F82E8BE990E0A0E0B0E0F801808B22
:100ED000918BA28BB38B4F2D66E0C8010E94090352
:100EE00066E0C8010E9464038F1509F47DC066E0C6
:100EF000C8010E94640366E0C8010E94640345E5DE
:100F000050E060E070E0F801408B518B628B738B96
:100F1000482F477D66E0C8010E94090366E0C801CA
:100F20000E946403C8010E94E00280E50E94E3027F
:100F300083E70E94E302C8010E94DD0240E06DE108
:100F4000C8010E94090340E06CE1C8010E94090346
:100F5000F801108640E767E0C8010E9409034CE4ED
:100F600065E0C8010E94090362EEC8010E94EA021E
:100F7000C8010E940603C8010E94AA0360E0C801DC
:100F80000E946403482F4E7F60E0C8010E9409035D
:100F900088E393E00E94E00463E080911404909160
:100FA00015040E9464038150833050F421C017302F
:100FB00008F49BC080911404909115040E94C3030F
:100FC00068EE73E080E090E00E94D10160960FB679
:100FD000F894DEBF0FBECDBFDF91CF911F910F916F
:100FE000FF90EF90DF90089581E0F80186837FCF36
:100FF000409129044E3708F04DE765E080911404D4
:10100000909115040E940903009114041091150495
:101010006DE1C8010E946403482F44606DE1C8017E
:101020000E9409036CE1C8010E946403482F4F63CA
:101030006CE1C8010E94090381E0F8018087E0901B
:101040001404F0901504B0912E04A0912F04F09197
:101050003004E09131049091320480913304009186
:1010600022041091230409871A87BB87AC87FD8768
:10107000EE879F87888BEFECF0E06491F70126857F
:10108000AE01475F5F4FC7010E942D0361E0C701BA
:101090000E94840310912804E0901404F090150439
:1010A000D0902E0400912F04B0913004A09131040F
:1010B000F0913204E091330420912604309127040A
:1010C00029833A83DB820C83BD83AE83FF83E88769
:1010D00011116DCFF701468550E0BE016F5F7F4F64
:1010E000C70109960E94F00E02C0113041F4E12FB1
:1010F000F0E0E253FF4F6491F701268506C0E12F2F
:10110000F0E0E253FF4F649121E0AE014F5F5F4F8B
:10111000C7010E942D03612FC7010E9484034ACF9B
:10112000789484B5826084BD84B5816084BD85B5C2
:10113000826085BD85B5816085BD80916E008160CE
:1011400080936E0010928100809181008260809374
:101150008100809181008160809381008091800076
:101160008160809380008091B10084608093B100A1
:101170008091B00081608093B00080917A0084609B
:1011800080937A0080917A00826080937A008091C7
:101190007A00816080937A0080917A0080688093E1
:1011A0007A001092C100E0916D03F0916E0382E02D
:1011B0008083E0916903F0916A031082E0916B03F0
:1011C000F0916C0380E1808310927503E0917103CC
:1011D000F091720386E08083E0916F03F0917003D9
:1011E000808180618083E0916F03F0917003808142
:1011F00088608083E0916F03F09170038081806844
:101200008083E0916F03F091700380818F7D8083F4
:101210000E94DE0680E090E00E94480D182F81E0D9
:1012200090E00E94480DC82FD0E0DC2FCC27C10FE2
:10123000D11DD0933D04C0933C0482E090E00E9415
:10124000480D182F83E090E00E94480D282F30E0D1
:10125000322F2227C901810F911D90933F04809363
:101260003E04CE010E94140786E191E00E94C00472
:101270006AE070E080913C0490913D040E94C204B9
:1012800082E391E00E94C0048091FA039091FB03F5
:101290000E94890462E083E00E94A20660E082E08E
:1012A0000E94A20660E084E00E94A20660E086E060
:1012B0000E94A20660E085E00E94A20660E087E04E
:1012C0000E94A20660E088E00E94A20660E089E039
:1012D0000E94A20662E083E10E94A20668EE73E02B
:1012E00080E090E00E94D101D1E052E0252E312C27
:1012F00067EE862E63E0962EA12CB12C44244A94EE
:1013000073E0572E612C712C80916C048823E1F0DE
:101310000E940B020E94340E609364047093650473
:1013200080936604909367048EE391E00E94C0046A
:101330008091FA039091FB030E94890489E491E073
:101340000E94E00410926C048091FA039091FB03D8
:101350008130910509F46BC11CF4892B49F0FFC160
:101360008230910509F4EFC1039709F4F6C1F7C182
:1013700082E00E94490620913404892B11F42160F7
:1013800001C02E7F2093340484E00E9449062091FE
:101390003404892B11F4226001C02D7F2093340482
:1013A00086E00E94490620913404892B11F42460C0
:1013B00001C02B7F2093340485E00E9449062091D0
:1013C0003404892B11F4286001C0277F2093340452
:1013D00087E00E94490620913404892B11F4206192
:1013E00001C02F7E2093340488E00E94490620919A
:1013F0003404892B11F4206201C02F7D2093340422
:1014000089E00E94490620913404892B11F420645C
:1014100001C02F7B2093340483E10E944906209170
:101420003404892B11F4206801C02F7720933404F1
:101430002091340480913504281709F44CC080E4CD
:1014400080937C0080917A00806480937A00809100
:101450007A0086FDFCCFA091780080917900B0E001
:101460002CE93FEF4FEF5FEF0E947D0DA30192014A
:101470000E945E0DDA01C9018C599F4FAF4FBF4FDB
:101480008093360480E591E00E94C00460913404AA
:1014900070E080E090E042E00E9448040E94440432
:1014A00086E691E00E94C0046091360470E080E01E
:1014B00090E04AE00E9448040E94440481E090E0E9
:1014C0009093FB038093FA03D0936C0480913404CF
:1014D000809335040CC0222351F081E090E090937A
:1014E000FB038093FA03D0936C042093350483E0CC
:1014F0000E944906892B09F032C10E940B020E940A
:10150000340E6B017C01C0E083E00E944906892B08
:1015100091F40E940B020E94340EA70196010E94D2
:10152000C70D20E030E04AEF53E40E94C20E1816C7
:101530005CF7C1E0E9CFCC2309F476C086E791E0FF
:101540000E94E0048EE891E00E94E0040E940B02F9
:10155000611571058105910511F00E943F0D0E94F2
:101560003A0D27EE32E040E050E00E945E0DDC01D3
:10157000CB019F5FAF4FBF4F90933D0480933C04DE
:101580000E943A0DA50194010E945E0DDC01CB0181
:1015900087519C4FAF4FBF4F90933F0480933E04C1
:1015A0008CEA91E00E94E0048CEB91E00E94C00480
:1015B00060913C0470913D0480E090E040E10E9425
:1015C000480489EC91E00E94C00460E170E08091E1
:1015D0003E0490913F040E94C20468EE73E080E0F4
:1015E00090E00E94D10180913C0490913D040E94C2
:1015F000140760913C04C0913D0480E090E00E949B
:10160000500D6C2F81E090E00E94500D60913E04DF
:10161000C0913F0482E090E00E94500D6C2F83E067
:1016200090E00E94500D99C08CED91E04CC08FEF7E
:101630008093440495E59093450410924704E2E0BA
:10164000E0934804FAE5F0934904809134048093D0
:101650004A0488E0809342048091360480934B04CE
:1016600096E09093460486EF91E00E94C0046AE001
:1016700070E080913E0490913F040E94C20449E0D2
:1016800064E474E080913E0490913F040E94EC0475
:10169000C82F82E192E00E94C004CC23B9F03092BE
:1016A000FB032092FA03D0936C048BE192E00E943A
:1016B000C0046AE070E080913E0490913F040E9473
:1016C000C2048AE392E00E94E00449C00E940B0237
:1016D0000E94340E209164043091650440916604A8
:1016E000509167040E94C70D6B017C0180916804D2
:1016F00090916904A0916A04B0916B04BC01CD0182
:1017000096958795779567950E94340E9B01AC015D
:10171000C701B6010E94C20E18160CF51092FB0309
:101720001092FA03D0936C0488E492E00E94C00403
:101730006AE070E080913E0490913F040E94C204F0
:1017400082E692E0C0CF67E1809114049091150485
:101750000E94640380FF23C005C00E94DD050E9433
:10176000BA01D2CD0E940B020E94340E2091640473
:101770003091650440916604509167040E94C70D42
:1017800020E030E44CE955E40E94C20E18163CF704
:101790001092FB031092FA03D0936C04E0CF8EEA10
:1017A00092E00E94E00467E1809114049091150496
:1017B0000E946403982F9170F92E80FDD0CF009184
:1017C000140410911504C8010E94E00280E60E94F2
:1017D000E3028FEF0E94E302C82FC8010E94DD02DE
:1017E000C13208F464C062EEC8010E94EA0262E0FD
:1017F00070E080E090E00E94D1010091140410910B
:101800001504F801C781EF2CCF1508F4EC2EF80170
:101810008085811102C0CE1901C0C0E0C8010E94BC
:10182000E00281E60E94E30284E4C82E84E0D82E20
:10183000EC0CEC1439F08FEF0E94E302F601819377
:101840006F01F7CFCC2329F08FEF0E94E302C15044
:10185000F9CFC8010E94DD0240E767E0C8010E949D
:101860000903809144048F3F99F4809145048535A4
:1018700079F4809146048D3059F4809147048A3080
:1018800039F48CE792E00E94C0040E94440408C02E
:10189000F3E0FF1508F487CF88E992E00E94E004A6
:1018A0001092FB031092FA03D0936C047CCFFC2EB1
:1018B000A4CFEDE5F3E01382128288EE93E0A0E07E
:1018C000B0E084839583A683B78388E091E0918319
:1018D000808385EC90E09587848784EC90E09787FF
:1018E000868780EC90E0918B808B81EC90E0938BED
:1018F000828B82EC90E0958B848B86EC90E0978BCA
:10190000868B118E128E138E148EEAEFF3E0118205
:10191000108280E190E09383828381E190E095835F
:101920008483108680E28187128685E0808B85E043
:1019300090E0A0E0B0E0868B978BA08FB18F1386EC
:101940008CEF93E0938F828F8FEF90E095A784A721
:1019500082E086A78CE687A712AA13AA80EF84AB41
:1019600085AB86AB17AA10AE11AE12AE13AE14AE95
:1019700010923704109238041092390481E0809359
:101980003A0410923B0421E030E030933D04209370
:101990003C0422E030E030933F0420933E0428EEE4
:1019A00033E030934104209340041092420410929B
:1019B000430448E853E160E070E0409368045093CA
:1019C000690460936A0470936B0480936C041092B2
:1019D0006D0410926E0408958F929F92AF92BF9201
:1019E000CF92DF92EF92FF92CF93DF93EC01688169
:1019F00079818A819B81611571058105910521F4A9
:101A000064E279ED8BE597E02DE133EF41E050E0C2
:101A10000E945E0D49015A019B01AC01A7EAB1E4A5
:101A20000E947D0D6B017C01ACEEB4EFA501940129
:101A30000E948B0DDC01CB018C0D9D1DAE1DBF1DC9
:101A4000B7FF03C00197A109B04888839983AA838F
:101A5000BB83BC01CD019F77DF91CF91FF90EF90C9
:101A6000DF90CF90BF90AF909F908F9008950E948D
:101A7000EC0C089580E091E00E94EC0C08956093D6
:101A80000001709301018093020190930301089576
:101A9000F999FECF92BD81BDF89A992780B5089536
:101AA000262FF999FECF1FBA92BD81BD20BD0FB67A
:101AB000F894FA9AF99A0FBE01960895052E97FBAD
:101AC0001EF400940E94750D57FD07D00E94900DE2
:101AD00007FC03D04EF40C94750D5095409530954D
:101AE00021953F4F4F4F5F4F08959095809570958A
:101AF00061957F4F8F4F9F4F08950E94B20DA59F14
:101B0000900DB49F900DA49F800D911D11240895F8
:101B1000B7FF0C947D0D0E947D0D821B930B0895E1
:101B2000A1E21A2EAA1BBB1BFD010DC0AA1FBB1FE1
:101B3000EE1FFF1FA217B307E407F50720F0A21B53
:101B4000B30BE40BF50B661F771F881F991F1A94C0
:101B500069F760957095809590959B01AC01BD01EA
:101B6000CF010895A29FB001B39FC001A39F700D44
:101B7000811D1124911DB29F700D811D1124911D95
:101B80000895EE0FFF1F0590F491E02D0994505831
:101B9000BB27AA270E94DF0D0C94880E0E947A0EA4
:101BA00038F00E94810E20F039F49F3F19F426F49A
:101BB0000C94770E0EF4E095E7FB0C94710EE92F70
:101BC0000E94990E58F3BA176207730784079507A6
:101BD00020F079F4A6F50C94BB0E0EF4E0950B2ED4
:101BE000BA2FA02D0B01B90190010C01CA01A0016F
:101BF0001124FF27591B99F0593F50F4503E68F1CA
:101C00001A16F040A22F232F342F4427585FF3CF0A
:101C1000469537952795A795F0405395C9F77EF4DB
:101C20001F16BA0B620B730B840BBAF09150A1F024
:101C3000FF0FBB1F661F771F881FC2F70EC0BA0FAA
:101C4000621F731F841F48F4879577956795B79532
:101C5000F7959E3F08F0B0CF9395880F08F099272D
:101C6000EE0F979587950895E89409C097FB3EF489
:101C700090958095709561957F4F8F4F9F4F9923D9
:101C8000A9F0F92F96E9BB279395F6958795779557
:101C90006795B795F111F8CFFAF4BB0F11F460FF17
:101CA0001BC06F5F7F4F8F4F9F4F16C0882311F06F
:101CB00096E911C0772321F09EE8872F762F05C083
:101CC000662371F096E8862F70E060E02AF09A951E
:101CD000660F771F881FDAF7880F9695879597F913
:101CE000089597F99F6780E870E060E008959FEF9E
:101CF00080EC089500240A941616170618060906A3
:101D0000089500240A941216130614060506089571
:101D1000092E0394000C11F4882352F0BB0F40F4F9
:101D2000BF2B11F460FF04C06F5F7F4F8F4F9F4F39
:101D3000089557FD9058440F551F59F05F3F71F0BB
:101D40004795880F97FB991F61F09F3F79F0879522
:101D50000895121613061406551FF2CF4695F1DFAB
:101D600008C0161617061806991FF1CF869571053B
:101D7000610508940895E894BB2766277727CB016F
:101D800097F908950E94C70E08F48FEF0895990FF0
:101D90000008550FAA0BE0E8FEEF16161706E80735
:101DA000F907C0F012161306E407F50798F0621B56
:101DB000730B840B950B39F40A2661F0232B242B2B
:101DC000252B21F408950A2609F4A140A6958FEF4A
:101DD000811D811D089581E090E0F8940C94F90E26
:101DE000FB01DC0102C001900D9241505040D8F738
:061DF0000895F894FFCFF6
:101DF60001000000000000005101BA00E90098014E
:101E06001A01F8000C01446F6E676C652062656705
:101E1600696E207769746820616464726573733AC9
:101E260020005374617465206E6F773A20005374F6
:101E3600617465204E6F3A200020426567696E0026
:101E4600427574746F6E20537461746520636861A3
:101E56006E67653A2000536C696465722076616C22
:101E66007565203A2000436F6E666967206D6F6462
:101E7600652069732061636365737365640052410D
:101E86004E444F4D2041444452455353494E4720FA
:101E96004D4F444520434F4E46494700476F7420F7
:101EA6006E65772061646472657373004D79206195
:101EB6006464726573733A2000202054617267650A
:101EC6007420616464726573733A20004E6F7420E7
:101ED60061636365737320746F20434F4E464947B1
:101EE600204D4F4445002E2E53656E64696E672063
:101EF6006461746120746F20616464726573733AFF
:101F0600200053656E74212E2E200053656E6420CA
:101F16005375636365737366756C6C7920746F2093
:101F2600616464726573733A2000476F20746F2092
:101F3600526561642052460053656E64696E67207F
:101F46006661696C20746F20616464726573733AAC
:101F56002000476F20746F206261636B20746F20CE
:101F6600726561642053657269616C0072656365B0
:101F7600697665642076616C69642061636B6E6F57
:101F8600776C656164676500696E76616C6964206B
:101F960064617461207265636569766564005246A2
:101FA600206461746120636F6D6521000D0A005322
:101FB600656E64696E6720636F6E6669672064612B
:101FC60074613A2E2E2E0055534220416464726588
:101FD60073733A2000202020526F626F7420616470
:101FE60064726573733A200053656E7420436F6E96
:101FF6006669672061646472657373696E672073CE
:1020060075636365737366756C200053656E742023
:10201600436F6E6669672061646472657373696E87
:1020260067204641494C2100436865636B204E5248
:102036004632344C303120436F6E6E656374696F7F
:042046006E21000007
:00000001FF
