:100000000C946B000C9493000C9493000C9493004C
:100010000C9493000C9493000C9493000C94930014
:100020000C9493000C9493000C9493000C94930004
:100030000C9493000C9493000C9493000C949300F4
:100040000C9479030C9493000C94E9030C94C3036F
:100050000C9493000C9493000C9493000C949300D4
:100060000C9493000C9493001112131415160000B5
:100070000000250028002B000000000023002600BF
:10008000290000000008000201000003040700002E
:1000900000000000000000000000240027002A00EB
:1000A000010204081020408001020408102001020F
:1000B00004081020040404040404040402020202DC
:1000C00002020303030303030001020304050A0BF6
:1000D0000C0D0E0F8C0B11241FBECFEFD8E0DEBF2E
:1000E000CDBF13E0A0E0B1E0E4E5FCE102C0059083
:1000F0000D92A431B107D9F724E0A4E1B3E001C027
:100100001D92A035B207E1F710E0CBE6D0E004C0C5
:100110002197FE010E94F00CCA36D107C9F70E9450
:1001200083080C94280E0C940000833081F028F48E
:10013000813099F08230A1F008958730A9F088309D
:10014000B9F08430D1F4809180008F7D03C080911C
:1001500080008F7780938000089584B58F7702C0E8
:1001600084B58F7D84BD08958091B0008F7703C0E2
:100170008091B0008F7D8093B0000895CF93DF937E
:10018000282F30E0F901EE57FF4F8491F901E05636
:10019000FF4FD491F901EC54FF4FC491CC2391F05F
:1001A00081110E949500EC2FF0E0EE0FFF1FE85840
:1001B000FF4FA591B491EC91ED2381E090E021F403
:1001C00080E002C080E090E0DF91CF9108951F931E
:1001D000CF93DF93282F30E0F901EE57FF4F849142
:1001E000F901E056FF4FD491F901EC54FF4FC4914F
:1001F000CC23C9F0162F81110E949500EC2FF0E05E
:10020000EE0FFF1FE259FF4FA591B4918FB7F894FD
:10021000111105C09C91ED2FE095E92302C0EC91EE
:10022000ED2BEC938FBFDF91CF911F9108953FB7D6
:10023000F8948091190390911A03A0911B03B09137
:100240001C0326B5A89B05C02F3F19F00196A11DE0
:10025000B11D3FBFBA2FA92F982F8827820F911D5C
:10026000A11DB11DBC01CD0142E0660F771F881FA3
:10027000991F4A95D1F708952FB7F8946091150307
:100280007091160380911703909118032FBF089562
:10029000CF92DF92EF92FF920F931F93CF93DF9352
:1002A0006C017A018B01C0E0D0E0CE15DF0589F04A
:1002B000D8016D918D01D601ED91FC910190F081F5
:1002C000E02DC6010995892B11F47E0102C021960B
:1002D000ECCFC701DF91CF911F910F91FF90EF906D
:1002E000DF90CF900895089580E090E00895FC019C
:1002F000538D448D252F30E0842F90E0821B930B8B
:10030000541710F0CF96089501970895FC01918D30
:10031000828D981761F0828DDF01A80FB11D5D9667
:100320008C91928D9F5F9F73928F90E008958FEFD5
:100330009FEF0895FC01918D828D981731F0828D89
:10034000E80FF11D858D90E008958FEF9FEF0895E0
:10035000FC01918D228D892F90E0805C9F4F821B44
:1003600091098F73992708958EE193E00E94A80167
:1003700021E0892B09F420E0822F0895FC01848D6F
:10038000DF01A80FB11DA35ABF4F2C91848D90E0BF
:1003900001968F739927848FA689B7892C93A0899A
:1003A000B1898C9180648C93938D848D981306C051
:1003B0000288F389E02D80818F7D80830895EF92FC
:1003C000FF920F931F93CF93DF93EC0181E0888F0F
:1003D0009B8D8C8D981305C0E889F989808185FDF6
:1003E00024C0F62E0B8D10E00F5F1F4F0F731127E7
:1003F000E02E8C8DE8120CC00FB607FCFACFE8890E
:10040000F989808185FFF5CFCE010E94BE01F1CF31
:100410008B8DFE01E80FF11DE35AFF4FF0820B8F29
:10042000EA89FB898081806207C0EE89FF89608349
:10043000E889F98980818064808381E090E0DF91A0
:10044000CF911F910F91FF90EF900895CF93DF937D
:10045000EC01888D8823C9F0EA89FB89808185FDBC
:1004600005C0A889B9898C9186FD0FC00FB607FC1D
:10047000F5CF808185FFF2CFA889B9898C9185FF5E
:10048000EDCFCE010E94BE01E7CFDF91CF9108955D
:1004900080E090E0892B29F00E94B40181110C9436
:1004A00000000895CF93DF9386E191E00E940D064E
:1004B0008EE291E00E94EB056091FB037091FC03DA
:1004C00080E090E04AE00E9471058CE391E00E9498
:1004D000EB056AE070E08091FD039091FE030E94BD
:1004E000ED058FEF80932E0485E580932F04109205
:1004F000310482E08093320480E58093330480915C
:10050000FD039091FE038093340490933504809111
:10051000FB039091FC0380934E0490934F048093CF
:1005200036048AE080932D049093370488E080930A
:100530003004CEE2D4E0699170E080E090E040E1E8
:100540000E94710585E992E00E94EB0584E0C933C1
:10055000D80789F78FE491E00E945F054BE06EE2D7
:1005600074E088EE93E00E949E07882319F082E5EC
:1005700091E002C085E791E0DF91CF910C940D06E8
:100580000E941A0ECF93DF9390E0FC01E056FF4FDC
:100590002491FC01EC54FF4F8491882361F190E099
:1005A000880F991FFC01EA56FF4FC591D491FC01B9
:1005B000E259FF4FA591B491611109C09FB7F8941A
:1005C0008881209582238883EC912E230BC0623092
:1005D00061F49FB7F8943881822F809583238883B4
:1005E000EC912E2B2C939FBF06C08FB7F894E88117
:1005F0002E2B28838FBFDF91CF910895CF93CFB754
:10060000F89480911D03811127C0EEEBF0E08491F6
:10061000EAEAF0E09491E82FF0E0EE0FFF1FEA56CF
:10062000FF4FA591B491EC91E92321F461E08AE0B8
:100630000E94E70061E08AE00E94C2028CB58061FE
:100640008CBD8CB580648CBD61E08DE00E94C202DF
:1006500061E08BE00E94C20280911D038F5F809356
:100660001D03CFBFCF9108958230910538F0880FD8
:10067000991F880F991F05970197F1F708958F9299
:100680009F92AF92BF92CF92DF92EF92FF926B0157
:100690007C010E9417014B015C01C114D104E104EB
:1006A000F104F1F00E941701DC01CB0188199909CE
:1006B000AA09BB09883E9340A105B10570F321E06A
:1006C000C21AD108E108F10888EE880E83E0981E6E
:1006D000A11CB11CC114D104E104F10419F7DDCF50
:1006E000FF90EF90DF90CF90BF90AF909F908F9052
:1006F00008951F920F920FB60F9211242F933F93DC
:100700008F939F93AF93BF9380911503909116039E
:10071000A0911703B09118033091140323E0230F25
:100720002D3720F40196A11DB11D05C026E8230F29
:100730000296A11DB11D209314038093150390937D
:100740001603A0931703B093180380911903909197
:100750001A03A0911B03B0911C030196A11DB11DAA
:100760008093190390931A03A0931B03B0931C0367
:10077000BF91AF919F918F913F912F910F900FBE9D
:100780000F901F9018951F920F920FB60F92112481
:100790002F933F934F935F936F937F938F939F9389
:1007A000AF93BF93EF93FF938EE193E00E94BE015E
:1007B000FF91EF91BF91AF919F918F917F916F9139
:1007C0005F914F913F912F910F900FBE0F901F900F
:1007D00018951F920F920FB60F9211242F938F939B
:1007E0009F93EF93FF93E0912E03F0912F0380816D
:1007F000E0913403F091350382FD12C09081809125
:1008000037038F5F8F7320913803821751F0E09187
:100810003703F0E0E25EFC4F958F8093370301C011
:100820008081FF91EF919F918F912F910F900FBE3B
:100830000F901F901895FC01208131818281938156
:100840002817390719F0822F0C94E7000895CF93E9
:10085000DF93EC019CB59F7D9CBD9CB5937F9CBDB7
:100860009CB59C7F9CBD9DB591609DBD8A810E9479
:10087000E7008C899D89DF91CF910C94340360E06F
:100880000C9427048EBD00000DB407FEFDCF8EB57D
:1008900008951F93CF93DF93EC010E943F0481EEF4
:1008A0000E944204182F61E0CE010E942704812F8C
:1008B000DF91CF911F910895EF92FF921F93CF93F5
:1008C000DF9300D0CDB7DEB77C014A8369830E94F5
:1008D0003F046981862F8F7180620E944204182F25
:1008E0004A81842F0E94420461E0C7010E942704CC
:1008F000812F0F900F90DF91CF911F91FF90EF907C
:100900000895CF92DF92EF92FF920F931F93CF93B0
:10091000DF9300D01F92CDB7DEB77C01142F2A835E
:100920005B8369830E943F046981862F8F71806297
:100930000E944204082FC12E5B81D52E2A81120FFE
:100940001C1531F0F60181916F010E944204F8CF2D
:1009500061E0C7010E942704802F0F900F900F9035
:10096000DF91CF911F910F91FF90EF90DF90CF908B
:100970000895EF92FF921F93CF93DF931F92CDB70D
:10098000DEB77C0169830E943F046981862F8F71E5
:100990000E9442048FEF0E944204182F61E0C701B9
:1009A0000E942704812F0F90DF91CF911F91FF901C
:1009B000EF9008950F931F93CF93DF938C01C62F71
:1009C000D0E0FE01E859FF4F6491FC0147810E948D
:1009D0005C0462E0C8010E94B904FE01E853FF4FC5
:1009E000E49141E050E001C0440FEA95EAF7482B5A
:1009F00062E0C801DF91CF911F910F910C945C04CC
:100A0000CF93DF93EC0160E00E94B90481FD0EC03A
:100A1000482F426060E0CE010E945C0465E070E017
:100A200080E090E0DF91CF910C943F03DF91CF9174
:100A30000895CF93DF93EC010E94000560E0CE01A2
:100A40000E94B904482F416060E0CE010E945C041E
:100A500040E767E0CE010E945C0461E0CE010E94A5
:100A60001B048985882349F02E85AE01475F5F4FBF
:100A70006AE0CE010E94810414C062E0CE010E94AF
:100A8000B904E8ECF0E0E49121E030E001C0220F8D
:100A9000EA95EAF72095422F482362E0CE010E94B2
:100AA0005C046DE1CE010E94B90481FF05C0CE0156
:100AB000DF91CF910C944904DF91CF910895009775
:100AC00069F0FC0101900020E9F73197AF01481B64
:100AD000590BBC018EE193E00C94480180E090E05A
:100AE00008958F929F92AF92BF920F931F93CF93CF
:100AF000DF93CDB7DEB7A1970FB6F894DEBF0FBE78
:100B0000CDBF19A2423008F44AE08E010F5D1F4F9D
:100B1000842E912CA12CB12CA50194010E94BF0C14
:100B2000E62FB901CA0101501109EA3014F4E05D61
:100B300001C0E95CD801EC93232B242B252B61F712
:100B4000C8010E945F05A1960FB6F894DEBF0FBEE4
:100B5000CDBFDF91CF911F910F91BF90AF909F902C
:100B60008F900895CF92DF92EF92FF92CF93DF9311
:100B70006C01990FEE08FF08F7FE1AC0E0911E0302
:100B8000F0911F030190F081E02D6DE28EE193E082
:100B90000995EC0166277727CB016C197D098E0931
:100BA0009F094AE00E9471057C01EC0EFD1E06C003
:100BB0004AE0C701B6010E9471057C018FE491E013
:100BC0000E945F058E0D9F1DDF91CF91FF90EF90EA
:100BD000DF90CF9008950C945F05CF93DF93AB0126
:100BE000672B61F4E0911E03F0911F030190F081E7
:100BF000E02D682F8EE193E0099505C0BC0180E0EF
:100C000090E00E947105EC018FE491E00E945F0585
:100C10008C0F9D1FDF91CF910895CF93DF930E949A
:100C20005F05EC018FE491E00E945F058C0F9D1F32
:100C3000DF91CF910895DF92EF92FF920F931F9370
:100C4000CF93DF93CDB7DEB760970FB6F894DEBFD2
:100C50000FBECDBF9093E4038093E3030091D503CF
:100C60001091D603F801808191812281338182170E
:100C7000930719F061E00E94C202F801828193811A
:100C8000208131812817390719F061E00E94C202E2
:100C90000E94FE0260E0C8010E941B0461E0C801DE
:100CA0000E94270465E070E080E090E00E943F032E
:100CB0004CE060E0C8010E945C044FE564E0C801BC
:100CC0000E945C0466E0C8010E94B904877D8062CE
:100CD000F82E8BE990E0A0E0B0E0F801808B918BDA
:100CE000A28BB38B4F2D66E0C8010E945C0466E0C6
:100CF000C8010E94B9048F1509F484C066E0C801D8
:100D00000E94B90466E0C8010E94B90445E550E0BC
:100D100060E070E0F801408B518B628B738B482F41
:100D2000477D66E0C8010E945C0466E0C8010E943D
:100D3000B904C8010E943F0480E50E94420483E791
:100D40000E94420461E0C8010E94270440E06DE176
:100D5000C8010E945C0440E06CE1C8010E945C0490
:100D6000F801108640E767E0C8010E945C044CE48B
:100D700065E0C8010E945C04C8010E943F0482EE45
:100D80000E94420461E0C8010E942704C8010E9439
:100D90004904C8010E94000560E0C8010E94B9042E
:100DA000482F4E7F60E0C8010E945C0488EF92E00B
:100DB0000E940D0663E08091D5039091D6030E94B6
:100DC000B9048150833050F421C0173008F49BC01F
:100DD0008091D5039091D6030E94190568EE73E0C7
:100DE00080E090E00E943F0360960FB6F894DEBF6B
:100DF0000FBECDBFDF91CF911F910F91FF90EF906C
:100E0000DF90089581E0F801868378CF4091EA036E
:100E10004E3708F04DE765E08091D5039091D603F9
:100E20000E945C040091D5031091D6036DE1C801C6
:100E30000E94B904482F44606DE1C8010E945C041F
:100E40006CE1C8010E94B904482F4F636CE1C801EE
:100E50000E945C0481E0F8018087E090D503F09067
:100E6000D603B091EF03A091F003F091F103E0916C
:100E7000F2039091F3038091F4030091E303109146
:100E8000E40309871A87BB87AC87FD87EE879F87B6
:100E9000888BEFECF0E06491F7012685AE01475FA7
:100EA0005F4FC7010E94810461E0C7010E94DA041C
:100EB0001091E903E090D503F090D603D090EF03B2
:100EC0000091F003B091F103A091F203F091F303CC
:100ED000E091F4032091E7033091E80329833A83FA
:100EE000DB820C83BD83AE83FF83E88711116DCF56
:100EF000F701468550E0BE016F5F7F4FC70109963D
:100F00000E941F0E02C0113041F4E12FF0E0E253C5
:100F1000FF4F6491F701268506C0E12FF0E0E25310
:100F2000FF4F649121E0AE014F5F5F4FC7010E9408
:100F30008104612FC7010E94DA044ACFAF92BF92A9
:100F4000CF92DF92EF92FF920F931F93CF93DF9395
:100F5000CDB7DEB728970FB6F894DEBF0FBECDBF72
:100F60006C01B62EA72EE42E0091D5031091D60366
:100F700060E0C8010E941B04F801808991890E94E9
:100F800034036DE1C8010E94B90481FF08C0F80173
:100F9000808991890E943403C8010E94490460E05D
:100FA000C8010E94B904482F4E7F60E0C8010E942A
:100FB0005C0462E0C8010E94B904E8ECF0E0E4914E
:100FC00041E050E001C0440FEA95EAF7482B62E0A7
:100FD000C8010E945C040091D5031091D6039601CC
:100FE000D090EF03F090F003B091F103A091F203E1
:100FF000F091F303E091F40329833A83DB82FC82CE
:10100000BD83AE83FF83E887F8012685AE014F5F7D
:101010005F4F6AE0C8010E948104F8012685AE0195
:101020004F5F5F4F60E1C8010E948104F801478172
:1010300061E1C8010E945C040091D5031091D603C0
:10104000F801F780FE1408F4EF2CF8018085811177
:1010500002C0FE1801C0F12CC8010E943F0480EAC2
:101060000E944204CB2CDA2CEB0CEC1431F0F6018C
:1010700081916F010E944204F8CFFF2029F080E0A7
:101080000E944204FA94F9CF61E0C8010E9427044B
:1010900061E0C8010E941B04C8010E943F048FEF59
:1010A0000E944204F82E61E0C8010E9427048F2D9F
:1010B000807391F360E0C8010E941B0440E767E081
:1010C000C8010E945C0484FF05C0C8010E94490455
:1010D00010E001C011E08091D5039091D6030E94E9
:1010E0001905812F28960FB6F894DEBF0FBECDBF2D
:1010F000DF91CF911F910F91FF90EF90DF90CF90F4
:10110000BF90AF900895789484B5826084BD84B513
:10111000816084BD85B5826085BD85B5816085BDF2
:1011200080916E00816080936E00109281008091AA
:101130008100826080938100809181008160809332
:101140008100809180008160809380008091B10057
:1011500084608093B1008091B00081608093B00082
:1011600080917A00846080937A0080917A00826016
:1011700080937A0080917A00816080937A008091D8
:101180007A00806880937A001092C100E0912E036B
:10119000F0912F0382E08083E0912A03F0912B03EA
:1011A0001082E0912C03F0912D0380E18083109256
:1011B0003603E0913203F091330386E08083E091BF
:1011C0003003F0913103808180618083E0913003AE
:1011D000F0913103808188608083E0913003F09149
:1011E0003103808180688083E0913003F091310386
:1011F00080818F7D80830E94FE0280E090E00E94CB
:10120000770C182F81E090E00E94770CC82FD0E077
:10121000DC2FCC27C10FD11DD093FC03C093FB035F
:1012200082E090E00E94770C182F83E090E00E940B
:10123000770C282F30E0322F2227C901810F911D12
:101240009093FE038093FD03CE010E941B0682E96A
:1012500091E00E94EB056AE070E08091FB039091C1
:10126000FC030E94ED058EEA91E00E94EB0580915F
:10127000BB039091BC030E94B20562E083E00E9430
:10128000C20260E082E00E94C20260E084E00E944C
:10129000C20260E086E00E94C20260E085E00E9437
:1012A000C20260E087E00E94C20260E088E00E9423
:1012B000C20260E089E00E94C20260E08AE00E940F
:1012C000C20268EE73E080E090E00E943F035AE5BE
:1012D000252E68E0362E06E0C1E077EEC72E73E0DB
:1012E000D72EE12CF12C10E488248A94E3E09E2E82
:1012F000A12CB12C80912B048823E1F00E943C01A9
:101300000E94630D6093230470932404809325044A
:10131000909326048AEB91E00E94EB058091BB0339
:101320009091BC030E94B20585EC91E00E940D06ED
:1013300010922B048091BB039091BC0381309105E6
:1013400009F45CC18330910509F4E1C1892B09F0EE
:10135000E0C182E00E94BE002091F503892B11F4C8
:10136000216001C02E7F2093F50384E00E94BE001F
:101370002091F503892B11F4226001C02D7F209369
:10138000F50386E00E94BE002091F503892B11F43D
:10139000246001C02B7F2093F50385E00E94BE00EE
:1013A0002091F503892B11F4286001C0277F209339
:1013B000F50387E00E94BE002091F503892B11F40C
:1013C000206101C02F7E2093F50388E00E94BE00BB
:1013D0002091F503892B11F4206201C02F7D209309
:1013E000F50389E00E94BE002091F503892B11F4DA
:1013F000206401C02F7B2093F5038AE00E94BE0089
:101400002091F503892B11F4206801C02F772093D8
:10141000F5039091F5038091F603981709F44EC0F7
:1014200010937C0080917A00806480937A00809190
:101430007A0086FDFCCFA091780080917900B0E021
:101440002CE93FEF4FEF5FEF0E94AC0CA501940138
:101450000E948D0CDA01C9018C599F4FAF4FBF4FCD
:101460008093F7038CEC91E00E94EB056091F5030B
:1014700070E080E090E042E00E9471058FE491E02E
:101480000E945F0582EE91E00E94EB056091F703F8
:1014900070E080E090E04AE00E9471058FE491E006
:1014A0000E945F0581E090E09093BC038093BB03B2
:1014B000C0932B048091F5038093F60383E00E9490
:1014C000BE00892B09F025C10E943C010E94630DDA
:1014D0002B013C01D0E083E00E94BE00892B91F4F7
:1014E0000E943C010E94630DA30192010E94F60C30
:1014F00020E030E04AEF53E40E94F10D18165CF74B
:10150000D1E0E9CFDD2309F476C082EF91E00E94BB
:101510000D068AE092E00E940D060E943C016115D2
:1015200071058105910511F00E946E0C0E94690CF5
:1015300027EE32E040E050E00E948D0CDC01CB0150
:101540009F5FAF4FBF4F9093FC038093FB030E94BC
:10155000690CA70196010E948D0CDC01CB0187511B
:101560009C4FAF4FBF4F9093FE038093FD0388E2E3
:1015700092E00E940D0688E392E00E94EB056091E4
:10158000FB037091FC0380E090E040E10E94710554
:1015900085E492E00E94EB0560E170E08091FD033C
:1015A0009091FE030E94ED0568EE73E080E090E00C
:1015B0000E943F038091FB039091FC030E941B0655
:1015C0006091FB03D091FC0380E090E00E947F0CCF
:1015D0006D2F81E090E00E947F0C6091FD03D0911F
:1015E000FE0382E090E00E947F0C6D2F83E090E08C
:1015F0000E947F0C8CC088E592E086C08FEF8093BC
:10160000030485E5809304041092060482E080932D
:101610000704209208048091F50380930904309216
:1016200001048091F70380930A040093050482E784
:1016300092E00E94EB056AE070E08091FD039091DA
:10164000FE030E94ED0549E063E074E08091FD0334
:101650009091FE030E949E07D82F8EE892E00E9490
:10166000EB05DD23A9F01092BC031092BB03C093DD
:101670002B0487E992E00E94EB056AE070E080911C
:10168000FD039091FE030E94ED0586EB92E03CC0C5
:101690000E943C010E94630D209123043091240498
:1016A00040912504509126040E94F60C2B013C0128
:1016B0008091270490912804A0912904B0912A04D4
:1016C000BC01CD0196958795779567950E94630D2E
:1016D0009B01AC01C301B2010E94F10D1816CCF4BC
:1016E0001092BC031092BB03C0932B0484EC92E0D5
:1016F0000E94EB056AE070E08091FD039091FE038B
:101700000E94ED058EED92E00E940D0602C00E943F
:1017100052020E944802EECDEEE1F3E01382128203
:1017200088EE93E0A0E0B0E084839583A683B7833E
:1017300088E091E09183808385EC90E095878487B1
:1017400084EC90E09787868780EC90E0918B808B8B
:1017500081EC90E0938B828B82EC90E0958B848B74
:1017600086EC90E0978B868B118E128E138E148EE2
:10177000EBEBF3E01182108280E190E093838283AF
:1017800081E190E095838483108680E281871286D0
:1017900085E0808B85E090E0A0E0B0E0868B978BC1
:1017A000A08FB18F13868DEB93E0938F828F8FEF95
:1017B00090E095A784A782E086A78CE687A712AA67
:1017C00013AA80EF84AB85AB86AB17AA10AE11AE1F
:1017D00012AE13AE14AE1092F8031092F9031092E9
:1017E000FA0381E090E09093FC038093FB0382E096
:1017F00090E09093FE038093FD0388EE93E0909336
:1018000000048093FF03109201041092020480E10F
:1018100097E2A0E0B0E08093270490932804A0937F
:101820002904B0932A0481E080932B0410922C04A5
:1018300010922D0408958F929F92AF92BF92CF92F3
:10184000DF92EF92FF92CF93DF93EC016881798171
:101850008A819B81611571058105910521F464E2FE
:1018600079ED8BE597E02DE133EF41E050E00E9408
:101870008D0C49015A019B01AC01A7EAB1E40E9419
:10188000AC0C6B017C01ACEEB4EFA50194010E949D
:10189000BA0CDC01CB018C0D9D1DAE1DBF1DB7FF29
:1018A00003C00197A109B04888839983AA83BB83A9
:1018B000BC01CD019F77DF91CF91FF90EF90DF903A
:1018C000CF90BF90AF909F908F9008950E941B0C77
:1018D000089580E091E00E941B0C08956093000140
:1018E0007093010180930201909303010895F99987
:1018F000FECF92BD81BDF89A992780B50895262F15
:10190000F999FECF1FBA92BD81BD20BD0FB6F894E4
:10191000FA9AF99A0FBE01960895052E97FB1EF4C8
:1019200000940E94A40C57FD07D00E94BF0C07FC36
:1019300003D04EF40C94A40C50954095309521950D
:101940003F4F4F4F5F4F08959095809570956195EB
:101950007F4F8F4F9F4F08950E94E10CA59F900DE0
:10196000B49F900DA49F800D911D11240895B7FF81
:101970000C94AC0C0E94AC0C821B930B0895A1E25A
:101980001A2EAA1BBB1BFD010DC0AA1FBB1FEE1FF9
:10199000FF1FA217B307E407F50720F0A21BB30B44
:1019A000E40BF50B661F771F881F991F1A9469F7C0
:1019B00060957095809590959B01AC01BD01CF011C
:1019C0000895A29FB001B39FC001A39F700D811D18
:1019D0001124911DB29F700D811D1124911D089538
:1019E000EE0FFF1F0590F491E02D09945058BB278E
:1019F000AA270E940E0D0C94B70D0E94A90D38F075
:101A00000E94B00D20F039F49F3F19F426F40C9495
:101A1000A60D0EF4E095E7FB0C94A00DE92F0E94B3
:101A2000C80D58F3BA17620773078407950720F0AB
:101A300079F4A6F50C94EA0D0EF4E0950B2EBA2F6E
:101A4000A02D0B01B90190010C01CA01A0011124C4
:101A5000FF27591B99F0593F50F4503E68F11A1670
:101A6000F040A22F232F342F4427585FF3CF469501
:101A700037952795A795F0405395C9F77EF41F1623
:101A8000BA0B620B730B840BBAF09150A1F0FF0FED
:101A9000BB1F661F771F881FC2F70EC0BA0F621FD9
:101AA000731F841F48F4879577956795B795F795C9
:101AB0009E3F08F0B0CF9395880F08F09927EE0F5E
:101AC000979587950895E89409C097FB3EF4909503
:101AD0008095709561957F4F8F4F9F4F9923A9F007
:101AE000F92F96E9BB279395F69587957795679596
:101AF000B795F111F8CFFAF4BB0F11F460FF1BC0DA
:101B00006F5F7F4F8F4F9F4F16C0882311F096E96C
:101B100011C0772321F09EE8872F762F05C066231A
:101B200071F096E8862F70E060E02AF09A95660FD3
:101B3000771F881FDAF7880F9695879597F908958C
:101B400097F99F6780E870E060E008959FEF80EC70
:101B5000089500240A941616170618060906089513
:101B600000240A9412161306140605060895092E79
:101B70000394000C11F4882352F0BB0F40F4BF2BE8
:101B800011F460FF04C06F5F7F4F8F4F9F4F089528
:101B900057FD9058440F551F59F05F3F71F047951E
:101BA000880F97FB991F61F09F3F79F08795089503
:101BB000121613061406551FF2CF4695F1DF08C022
:101BC000161617061806991FF1CF8695710561053F
:101BD00008940895E894BB2766277727CB0197F9E7
:101BE00008950E94F60D08F48FEF0895990F0008EC
:101BF000550FAA0BE0E8FEEF16161706E807F907DF
:101C0000C0F012161306E407F50798F0621B730B79
:101C1000840B950B39F40A2661F0232B242B252BFA
:101C200021F408950A2609F4A140A6958FEF811D9D
:101C3000811D089581E090E0F8940C94280EFB013A
:101C4000DC0102C001900D9241505040D8F7089538
:041C5000F894FFCF36
:101C54000100000000000000DF01480177012602B6
:101C6400A80186019A0153656E64696E6720636FEB
:101C74006E66696720646174613A2E2E2E00555396
:101C84004220416464726573733A2000202020521C
:101C94006F626F7420616464726573733A20000D1F
:101CA4000A0053656E7420436F6E66696720616431
:101CB4006472657373696E672073756363657373A8
:101CC40066756C200053656E7420436F6E66696799
:101CD4002061646472657373696E67204641494C80
:101CE4002100446F6E676C6520626567696E2077BA
:101CF40069746820616464726573733A2000537474
:101D0400617465206E6F773A2000537461746520A6
:101D14004E6F3A200020426567696E004275747404
:101D24006F6E205374617465206368616E67653AF1
:101D34002000536C696465722076616C7565203A85
:101D44002000436F6E666967206D6F646520697358
:101D54002061636365737365640052414E444F4D63
:101D64002041444452455353494E47204D4F444526
:101D740020434F4E46494700476F74206E657720D5
:101D840061646472657373004D7920616464726583
:101D940073733A2000202054617267657420616473
:101DA40064726573733A20004E6F742061636365D7
:101DB400737320746F20434F4E464947204D4F4460
:101DC40045002E2E53656E64696E672064617461EC
:101DD40020746F20616464726573733A20005365E4
:101DE4006E74212E2E200053656E64205375636338
:101DF40065737366756C6C7920746F2061646472AA
:101E04006573733A2000476F20746F2052656164D4
:101E14002052460053656E64696E67206661696C82
:101E240020746F20616464726573733A2000476F95
:101E340020746F206261636B20746F20726561642B
:101E44002053657269616C00436865636B204E5270
:101E54004632344C303120436F6E6E656374696F63
:041E64006E210000EB
:00000001FF
